:100000000C9462000C948A000C948A000C948A0070
:100010000C948A000C948A000C948A000C948A0038
:100020000C948A000C948A000C948A000C948A0028
:100030000C948A000C948A000C948A000C948A0018
:100040000C9400040C948A000C94CE030C94A80326
:100050000C948A000C948A000C948A000C948A00F8
:100060000C948A000C948A000000000024002700F1
:100070002A0000000000250028002B0000000008D6
:10008000000201000003040700000000000000005F
:1000900000000000230026002900040404040404D6
:1000A0000404020202020202030303030303010227
:1000B00004081020408001020408102001020408F6
:1000C0001020860611241FBECFEFD8E0DEBFCDBFC3
:1000D00012E0A0E0B1E0E0E4F2E102C005900D9290
:1000E000AE33B107D9F722E0AEE3B2E001C01D9212
:1000F000AA3EB207E1F710E0C2E6D0E004C02197C3
:10010000FE010E941809C136D107C9F70E948F0469
:100110000C941E090C940000AF92BF92CF92DF9214
:10012000EF92FF920F931F93CF93DF936C017B01AC
:100130008B01040F151FEB015E01AE18BF08C0173D
:10014000D10759F06991D601ED91FC910190F081B0
:10015000E02DC6010995892B79F7C501DF91CF9173
:100160001F910F91FF90EF90DF90CF90BF90AF90D5
:100170000895FC01538D448D252F30E0842F90E0AD
:10018000821B930B541710F0CF9608950197089592
:10019000FC01918D828D981761F0A28DAE0FBF2F5B
:1001A000B11D5D968C91928D9F5F9F73928F90E0B1
:1001B00008958FEF9FEF0895FC01918D828D981720
:1001C00031F0828DE80FF11D858D90E008958FEF5D
:1001D0009FEF0895FC01918D228D892F90E0805C26
:1001E0009F4F821B91098F73992708958DE492E0A8
:1001F0000E94EA0021E0892B09F420E0822F089573
:1002000080E090E0892B29F00E94F60081110C9487
:1002100000000895FC01A48DA80FB92FB11DA35AA9
:10022000BF4F2C91848D90E001968F739927848F16
:10023000A689B7892C93A089B1898C918370806439
:100240008C93938D848D981306C00288F389E02DDA
:1002500080818F7D80830895EF92FF920F931F938B
:10026000CF93DF93EC0181E0888F9B8D8C8D981369
:100270001AC0E889F989808185FF15C09FB7F89475
:10028000EE89FF896083E889F989808183708064C1
:1002900080839FBF81E090E0DF91CF911F910F910C
:1002A000FF90EF900895F62E0B8D10E00F5F1F4F1B
:1002B0000F731127E02E8C8D8E110CC00FB607FC2A
:1002C000FACFE889F989808185FFF5CFCE010E94B8
:1002D0000A01F1CFEB8DEC0FFD2FF11DE35AFF4F1B
:1002E000F0829FB7F8940B8FEA89FB898081806246
:1002F000CFCFCF93DF93EC01888D8823B9F0AA8903
:10030000BB89E889F9898C9185FD03C0808186FDD0
:100310000DC00FB607FCF7CF8C9185FFF2CF80811F
:1003200085FFEDCFCE010E940A01E9CFDF91CF9189
:10033000089590E0FC01E458FF4F2491FC01E25540
:10034000FF4F3491FC01E656FF4FE491EE23C9F0D4
:10035000222339F0233001F1A8F4213019F12230A1
:1003600029F1F0E0EE0FFF1FEE58FF4FA591B49179
:100370008FB7F894EC91611126C030953E233C93E1
:100380008FBF08952730A9F02830C9F0243049F7ED
:10039000809180008F7D03C0809180008F77809353
:1003A0008000DFCF84B58F7784BDDBCF84B58F7DB0
:1003B000FBCF8091B0008F778093B000D2CF809137
:1003C000B0008F7DF9CF3E2BDACFCF93DF9390E053
:1003D000FC01E255FF4F249186569F4FFC0184910A
:1003E0008823D1F090E0880F991FFC01E859FF4F56
:1003F000A591B491FC01EE58FF4FC591D4916111C4
:100400000EC09FB7F8948C91E22FE0958E238C93C9
:100410002881E223E8839FBFDF91CF9108958FB7B2
:10042000F894EC91E22BEC938FBFF6CF3FB7F894A2
:100430008091430290914402A0914502B0914602FE
:1004400026B5A89B05C02F3F19F00196A11DB11D2F
:100450003FBFBA2FA92F982F8827BC01CD01620F6B
:10046000711D811D911D42E0660F771F881F991F26
:100470004A95D1F708958F929F92AF92BF92CF92F3
:10048000DF92EF92FF924B015C010E9416026B011A
:100490007C010E9416026C197D098E099F09683E35
:1004A000734081059105A8F321E0821A9108A10803
:1004B000B10888EEC80E83E0D81EE11CF11C81143F
:1004C0009104A104B10429F7FF90EF90DF90CF9041
:1004D000BF90AF909F908F900895FC0101900020F5
:1004E000E9F73197AF01481B590BBC018DE492E04D
:1004F0000C948C008F929F92AF92BF920F931F9398
:10050000CF93DF93CDB7DEB7A1970FB6F894DEBFD8
:100510000FBECDBF19A2423008F44AE08E010F5D34
:100520001F4F842E912CB12CA12CA50194010E9467
:10053000F608E62FB901CA01EA30F4F4E05DD8010B
:10054000EE938D01232B242B252B79F790E080E06F
:10055000109719F0CD010E946D02A1960FB6F89484
:10056000DEBF0FBECDBFDF91CF911F910F91BF9026
:10057000AF909F908F900895E95CE1CFCF93DF9388
:100580000E946D02EC0182E191E00E946D028C0FED
:100590009D1FDF91CF9108954F925F926F927F924E
:1005A0008F929F92AF92BF92CF92DF92EF92FF9283
:1005B0000F931F93CF936B017C01742EAC019B01B1
:1005C0000E94F108882399F085E191E0CF911F9175
:1005D0000F91FF90EF90DF90CF90BF90AF909F90E2
:1005E0008F907F906F905F904F900C946D024601BA
:1005F0005701E894B7F82FEF3FEF4FE75FE7C501EA
:10060000B4010E94F10881110DC02FEF3FEF4FE7B9
:100610005FE7C501B4010E94200718161CF489E1A8
:1006200091E0D4CF2FEF3FEF4FE75FE4C701B60172
:100630000E947F0818161CF48DE191E0C7CF2FEFC0
:100640003FEF4FE75FECC701B6010E94200787FD2F
:10065000F3CF20E030E0A901C701B6010E942007D6
:1006600010E000E087FF0AC06DE28DE492E00E9496
:100670002C018C01F7FAF094F7F8F094C0E060E0F8
:1006800070E080E09FE37C1641F020E030E040E243
:1006900051E40E942507CF5FF6CFA70196010E9483
:1006A000B4062B013C010E949E074B015C014AE00D
:1006B0000E947A027C01E00EF11ECC23C1F1C5013B
:1006C000B4010E94CD079B01AC01C301B2010E949D
:1006D000B3064B015C016EE28DE492E00E942C01B6
:1006E000E80EF91EC15018F120E030E040E251E47C
:1006F000C501B4010E9484082B013C010E949E07A1
:100700004B01B12CA12C4AE0C501B4010E947A0230
:10071000E80EF91EC501B4010E94CD079B01AC0192
:10072000C301B2010E94B3064B015C01DBCFC701DC
:10073000CF911F910F91FF90EF90DF90CF90BF90DE
:10074000AF909F908F907F906F905F904F900895A3
:100750001F920F920FB60F9211242F933F934F9336
:100760005F936F937F938F939F93AF93BF93EF9319
:10077000FF938DE492E00E940A01FF91EF91BF91F7
:10078000AF919F918F917F916F915F914F913F9129
:100790002F910F900FBE0F901F9018951F920F92E0
:1007A0000FB60F9211242F938F939F93EF93FF9384
:1007B000E0915D02F0915E028081E0916302F09130
:1007C000640282FD1BC09081809166028F5F8F73EF
:1007D00020916702821741F0E0916602F0E0E35B4E
:1007E000FD4F958F80936602FF91EF919F918F91BE
:1007F0002F910F900FBE0F901F9018958081F4CF0E
:100800001F920F920FB60F9211242F933F938F9345
:100810009F93AF93BF9380913F0290914002A0912C
:100820004102B091420230913E0223E0230F2D3766
:1008300058F50196A11DB11D20933E0280933F0201
:1008400090934002A0934102B093420280914302F0
:1008500090914402A0914502B09146020196A11DDB
:10086000B11D8093430290934402A0934502B0933C
:100870004602BF91AF919F918F913F912F910F9021
:100880000FBE0F901F90189526E8230F0296A11D0A
:10089000B11DD2CFCF92DF92EF92FF920F931F93B1
:1008A000E82FF92F05C0015011092109310961F123
:1008B000908196239417B9F305C0015011092109BD
:1008C000310911F1908196239413F7CFC12CD12CCB
:1008D000E12CF12C0AC08FEFC81AD80AE80AF80AEE
:1008E0000C151D052E053F0579F0808186238417A0
:1008F00091F36C2D7D2D8E2D9F2D1F910F91FF90CB
:10090000EF90DF90CF90089560E070E080E090E09D
:100910001F910F91FF90EF90DF90CF900895789402
:1009200084B5826084BD84B5816084BD85B58260F4
:1009300085BD85B5816085BD80916E0081608093A5
:100940006E0010928100809181008260809381000E
:10095000809181008160809381008091800081601E
:10096000809380008091B10084608093B100809179
:10097000B00081608093B00080917A0084608093A1
:100980007A0080917A00826080937A0080917A0068
:10099000816080937A0080917A00806880937A00E9
:1009A0001092C100E0915D02F0915E0282E08083CE
:1009B000E0915902F0915A021082E0915B02F091AD
:1009C0005C028FEC808310926502E0916102F091ED
:1009D000620286E08083E0915F02F0916002808194
:1009E00080618083E0915F02F09160028081886085
:1009F0008083E0915F02F091600280818068808353
:100A0000E0915F02F091600280818F7D808361E0E0
:100A10008BE00E94E50161E08CE00E94E50160E06E
:100A20008CE00E94990160E08BE00E94990161E0F6
:100A300089E00E94E50160E08AE00E94E50181E230
:100A400091E00E94BE026CED75E080E090E00E94B3
:100A50003B028FE391E00E94BE0260ED77E080E010
:100A600090E00E943B02C3E0D0E093E2E92EF12C3B
:100A700028EBC22E20E0D22E34EAA32E30E0B32E93
:100A800040E4742E50E0852E50E0952E60E089E021
:100A90000E949901CE010197F1F761E089E00E947F
:100AA0009901C7010197F1F760E089E00E9499017F
:100AB000F6016491F5018491E82FF0E0EE0FFF1F3D
:100AC000E057FF4F8591949100E412E42FE030E06D
:100AD000462F0E944A04611571058105910529F090
:100AE0006F5F7F4F8F4F9F4F9F700E94CF0726E908
:100AF00033E44BE05DE30E94840820E030E040E016
:100B00005FE30E9484080E94970770934C026093F1
:100B10004B028CE591E00E946D0220904B023090D8
:100B20004C02032C000C440855084AE0C201B101F4
:100B300057FE0DC06DE28DE492E00E942C01662705
:100B40007727CB0162197309840995094AE00E944D
:100B50007A0282E191E00E946D0264EF71E080E030
:100B600090E00E943B0280914B0290914C0245978D
:100B70000CF0C7C061E08BE00E94990164EF71E066
:100B800080E090E00E943B0260E08BE00E949901CF
:100B900064EF71E080E090E00E943B0287E691E024
:100BA0000E94BE0264EF71E080E090E00E943B0290
:100BB00081E891E00E94BE0264EF71E080E090E085
:100BC0000E943B0270927C0080917A008064809346
:100BD0007A0080917A0086FDFCCF80917800609148
:100BE0007900762F682F072E000C880B990B0E9436
:100BF000CF0726EF38E24CE950E40E94840820E059
:100C000030E040E251E40E94250760934702709370
:100C100048028093490290934A0280EA91E00E9440
:100C2000BE02609147027091480280914902909102
:100C30004A0242E00E94CC0286EB91E00E946D02E3
:100C400068EE73E080E090E00E943B0285E691E070
:100C50000E94BE0286EC91E00E94BE0264EF71E049
:100C600080E090E00E943B0261E08CE00E949901EC
:100C700060ED77E080E090E00E943B0260E08CE075
:100C80000E94990164EF71E080E090E00E943B02D5
:100C90008BEF91E00E94BE0264EF71E080E090E093
:100CA0000E943B028AE292E00E94BE0260914702EB
:100CB000709148028091490290914A0242E00E945C
:100CC000CC0268EE73E080E090E00E943B0285E693
:100CD00091E00E94BE0281E392E00E94BE0264EFB6
:100CE00071E080E090E00E943B028114910409F4DD
:100CF000CDCE0E94F600882309F4C8CE0E940000E1
:100D0000C5CE60E08BE00E949901EFCFEDE4F2E008
:100D10001382128288EE93E0A0E0B0E08483958392
:100D2000A683B78384E091E09183808385EC90E093
:100D30009587848784EC90E09787868780EC90E0A5
:100D4000918B808B81EC90E0938B828B82EC90E096
:100D5000958B848B86EC90E0978B868B118E128E10
:100D6000138E148E08955058BB27AA270E94CB06D5
:100D70000C9445080E94370838F00E943E0820F085
:100D800039F49F3F19F426F40C9434080EF4E095DE
:100D9000E7FB0C942E08E92F0E94560858F3BA1767
:100DA000620773078407950720F079F4A6F50C9481
:100DB00078080EF4E0950B2EBA2FA02D0B01B90187
:100DC00090010C01CA01A0011124FF27591B99F0C1
:100DD000593F50F4503E68F11A16F040A22F232FCD
:100DE000342F4427585FF3CF469537952795A7951D
:100DF000F0405395C9F77EF41F16BA0B620B730BC4
:100E0000840BBAF09150A1F0FF0FBB1F661F771F34
:100E1000881FC2F70EC0BA0F621F731F841F48F4E9
:100E2000879577956795B795F7959E3F08F0B0CF72
:100E30009395880F08F09927EE0F97958795089559
:100E40000E940A0808F481E008950E9439070C9472
:100E500045080E943E0858F00E94370840F029F4E7
:100E60005F3F29F00C942E0851110C9479080C94D2
:100E700034080E94560868F39923B1F3552391F37F
:100E8000951B550BBB27AA2762177307840738F0F9
:100E90009F5F5F4F220F331F441FAA1FA9F335D056
:100EA0000E2E3AF0E0E832D091505040E695001C0A
:100EB000CAF72BD0FE2F29D0660F771F881FBB1FC4
:100EC000261737074807AB07B0E809F0BB0B802DA2
:100ED000BF01FF2793585F4F3AF09E3F510578F0CE
:100EE0000C942E080C9479085F3FE4F3983ED4F3F9
:100EF000869577956795B795F7959F5FC9F7880FA2
:100F0000911D9695879597F90895E1E0660F771FF3
:100F1000881FBB1F621773078407BA0720F0621B84
:100F2000730B840BBA0BEE1F88F7E09508950E94AF
:100F30009E076894B1110C94790808950E945E0888
:100F400088F09F5798F0B92F9927B751B0F0E1F08A
:100F5000660F771F881F991F1AF0BA95C9F714C03A
:100F6000B13091F00E947808B1E008950C947808AF
:100F7000672F782F8827B85F39F0B93FCCF3869573
:100F800077956795B395D9F73EF4909580957095D0
:100F900061957F4F8F4F9F4F0895E89409C097FB4D
:100FA0003EF490958095709561957F4F8F4F9F4F40
:100FB0009923A9F0F92F96E9BB279395F695879584
:100FC00077956795B795F111F8CFFAF4BB0F11F447
:100FD00060FF1BC06F5F7F4F8F4F9F4F16C08823EE
:100FE00011F096E911C0772321F09EE8872F762F24
:100FF00005C0662371F096E8862F70E060E02AF065
:101000009A95660F771F881FDAF7880F9695879550
:1010100097F90895990F0008550FAA0BE0E8FEEF25
:1010200016161706E807F907C0F012161306E407AC
:10103000F50798F0621B730B840B950B39F40A26A5
:1010400061F0232B242B252B21F408950A2609F483
:10105000A140A6958FEF811D811D089597F99F6787
:1010600080E870E060E008959FEF80EC0895002430
:101070000A941616170618060906089500240A94FD
:1010800012161306140605060895092E0394000C83
:1010900011F4882352F0BB0F40F4BF2B11F460FF12
:1010A00004C06F5F7F4F8F4F9F4F089557FD90583B
:1010B000440F551F59F05F3F71F04795880F97FB1C
:1010C000991F61F09F3F79F08795089512161306D6
:1010D0001406551FF2CF4695F1DF08C01616170605
:1010E0001806991FF1CF869571056105089408953A
:1010F000E894BB2766277727CB0197F908950E94CC
:101100000A0808F48FEF08950E9497080C94450888
:101110000E94370838F00E943E0820F0952311F015
:101120000C942E080C94340811240C9479080E9415
:10113000560870F3959FC1F3950F50E0551F629FBD
:10114000F001729FBB27F00DB11D639FAA27F00D20
:10115000B11DAA1F649F6627B00DA11D661F829F47
:101160002227B00DA11D621F739FB00DA11D621F2C
:10117000839FA00D611D221F749F3327A00D611D49
:10118000231F849F600D211D822F762F6A2F11242B
:101190009F5750409AF0F1F088234AF0EE0FFF1F5E
:1011A000BB1F661F771F881F91505040A9F79E3FB5
:1011B000510580F00C942E080C9479085F3FE4F3FD
:1011C000983ED4F3869577956795B795F795E7950B
:1011D0009F5FC1F7FE2B880F911D9695879597F914
:1011E00008950E940A08880B990B0895A1E21A2E0F
:1011F000AA1BBB1BFD010DC0AA1FBB1FEE1FFF1FBB
:10120000A217B307E407F50720F0A21BB30BE40B0A
:10121000F50B661F771F881F991F1A9469F7609551
:101220007095809590959B01AC01BD01CF0108950B
:10123000EE0FFF1F0590F491E02D0994F894FFCF75
:10124000000000002C018C00B9007901EA00C80000
:10125000DC000D0A006E616E00696E66006F7666D6
:10126000002A2A2A2A2A434F5649442053414645F8
:1012700054592053595354454D2A2A2A2A2A002AC0
:101280002A2A2A2A546869732069732047534D20FB
:1012900057696E646F772A2A2A2A2A004469737470
:1012A000616E63653A20002A2A2A2A2A50657273E1
:1012B0006F6E2044657465637465642A2A2A2A2A3D
:1012C000002A2A2A2A2A5363616E6E696E67207487
:1012D000656D70657261747572652A2A2A2A2A0002
:1012E000596F75722074656D706572617475726581
:1012F0002069733A20002044656772656520436564
:101300006C7369757300506C6561736520686F6CF0
:101310006420796F75722068616E647320756E64E5
:101320006572207468652073797374656D20746FBD
:101330002073616E6974697A652E004D65737361FF
:1013400067652073656E64696E6720746F206164E1
:101350006D696E20706F7274616C207669612047D0
:10136000534D204D6F64756C650054656D703A2067
:0E137000005448414E4B20594F552E2E2E0052
:00000001FF
